:020000020000FC
:0200000002C03C
:10000400ACC002E00EBF0FE50DBFF8940CE1009305
:1000140060000093610003E007BB0EE108BB379862
:1000240001E003BF02E40ABD0AE609BD00E20BBF1A
:100034000CE105BBC0E0D0E0789400C021960C2F01
:100044001D2F01230F3F69F0009160000C31B1F3C3
:100054007DD07CD010916100011769F0009361009C
:10006400EDCF01D0EBCF0F9300E305BF889500E0FF
:1000740005BF0F910895006802FF05C003FF07C084
:1000840004FF09C0DBCF046090E080E007C0086093
:1000940090E082E003C0006190E084E005D018D0D5
:1000A4000F7700936000CACF1F93E199FECF9FBBE7
:1000B4008EBBE09A1DB3109363000196E199FECFC5
:1000C4009FBB8EBBE09A1DB3109364001F910895EB
:1000D4000F9324D00091630006D00091640003D0F4
:1000E40023D00F9108950093620005D0009162001F
:1000F400009501D008951F9318E0069510F00BD0D9
:1001040001C004D01A95C9F71F9108950DD010D0DD
:100114000FD00ED0089508D00BD00895C1980FD0F9
:100124000ED0C19A0CD00895C19802D0C19A0895F6
:1001340096E08AEF8A95F1F79A95D9F7089590E3B6
:100144008DEF8A95F1F79A95D9F7089598EC8EEF8B
:100154008A95F1F79A95D9F708950F930091600065
:1001640007FD06C00FB70F9306B30C710093600030
:080174000F910FBF0F911895C8
:00000001FF
